:020000040800F2
:10000000B8DF0020C50200087B1F0008731F00082E
:10001000771F000851090008212300080000000094
:100020000000000000000000000000002D02000899
:10003000550900080000000071020008A51F000813
:10004000DF020008DF020008DF020008DF0200080C
:10005000DF020008DF020008DF020008DF020008FC
:10006000DF020008DF020008DF020008DF020008EC
:10007000DF020008DF020008DF020008DF020008DC
:10008000DF020008DF020008DF020008DF020008CC
:10009000DF020008DF020008DF020008DF020008BC
:1000A000DF020008DF020008DF020008DF020008AC
:1000B000DF020008DF020008BD1F0008DF020008A1
:1000C000DF020008DF020008DF020008DF0200088C
:1000D000DF020008FD220008DF020008DF0200083E
:1000E000DF020008DF020008DF020008DF0200086C
:1000F000DF020008DF020008DF020008DF0200085C
:10010000DF020008DF020008DF020008DF0200084B
:10011000DF020008DF02000801200008DF020008FB
:10012000DF020008DF020008DF020008DF0200082B
:1001300000F002F800F06BF80AA090E8000C82448E
:100140008344AAF10107DA4501D100F060F8AFF26B
:10015000090EBAE80F0013F0010F18BFFB1A43F0A5
:1001600001031847008C0000208C00000A444FF067
:10017000000C10F8013B13F0070408BF10F8014B06
:100180001D1108BF10F8015B641E05D010F8016B4B
:10019000641E01F8016BF9D113F0080F1EBF10F8AF
:1001A000014BAD1C0C1B09D16D1E58BF01F801CBD2
:1001B000FAD505E014F8016B01F8016B6D1EF9D555
:1001C0009142D6D37047000000230024002500266A
:1001D000103A28BF78C1FBD8520728BF30C148BFAA
:1001E0000B607047642900F0EB80752900F0E8800F
:1001F000782900F02181632900F00283732900F03F
:100200000783002070471FB51FBD10B510BD00F05B
:100210006DFB1146FFF7F7FF05F04AF800F08BFB86
:1002200003B4FFF7F2FF03BC02F09FF8224B1968FA
:100230000868B0E8F00F80F30988BFF36F8F4FF0C4
:10024000000080F311884EF00D0E70470000000092
:1002500006480068006880F3088862B661B6BFF39C
:100260004F8FBFF36F8F00DF00BF00BF08ED00E0CE
:10027000EFF30980BFF36F8F0F4B1A6820E9F00F7F
:10028000106008B54FF0500080F31188BFF34F8F16
:10029000BFF36F8F07F0EEFC4FF0000080F3118882
:1002A000BDE8084019680868B0E8F00F80F30988D5
:1002B000BFF36F8F704700BF88010020EFF3058008
:1002C000704700000948804709480047FEE7FEE7FD
:1002D000FEE7FEE7FEE7FEE7FEE7FEE7FEE7FEE7F6
:1002E00004480549054A064B70470000B91F00083D
:1002F00031010008B8D90020B8DF0020B8DB0020A9
:10030000B8DB0020704700000FB4044910B503AA01
:10031000029800F081FA10BC5DF814FB1800002070
:1003200070B5044685690068C10601D5302600E035
:100330002026C00707D070BDD4E901213046904780
:10034000206A401C20626D1EF6D570BD70B5044653
:1003500085690078C00707D170BDD4E9012120204C
:100360009047206A401C20626D1EF6D570BD70B5A6
:100370000C460546012A05D02878800600D5EA6992
:10038000002302E0012305E05B1C934202D2E05C03
:100390000028F9D1A869E618C01AA861286A18448B
:1003A00028622846FFF7BCFF04E0D5E9012114F8D4
:1003B000010B9047B442F8D32846FFF7C7FF70BD42
:1003C0002DE9F0410646002410687529314616A52E
:1003D00010D0AFF30080002802DA404213A507E0F6
:1003E00031688A0701D512A502E0490704D511A595
:1003F000012401E0AFF3008000210A2206F1240766
:1004000009E0B0FBF2FCB0FBF2F302FB1C00303061
:1004100078541846491C0028F3D123462A46304612
:10042000BDE8F04100F070B9000000002D000000B0
:100430002B0000002000000070B504460D46214648
:100440001068AFF300802188090502D50F4A7A446D
:1004500002E00E4A7A440E32002104F1240305E042
:1004600000F00F060009965D5E54491C0028F7D184
:1004700020780023000704D5702D02D009B1022393
:1004800011322046BDE8704000F03EB9D28700002E
:100490002DE9F05F894604464FF0000ADFF874B199
:1004A000FB44C0F820A02046E1688847002874D0AB
:1004B000252806D0D4E901219047206A401C2062FB
:1004C000F1E700265F462046E16888472028054678
:1004D00007DB312D05D2781910F8200C08B106433E
:1004E000F1E7B00701D526F00406C4F81CA00027E8
:1004F000C4F818A02A2D09D0284601F02FFF38B3E0
:1005000004EB8708303DC8F8185019E059F8041B6F
:10051000204604EB87029161E1688847012F054678
:1005200018D1E069002820DA26F020061DE0D8F86E
:10053000180000EB800005EB40003038C8F81800C8
:100540002046E1688847054601F008FF0028EED103
:10055000012F0AD02E2D08D12046E16888477F1C44
:100560000546022F46F02006C4DBA069002803DA06
:10057000404246F00106A061F00701D026F01006C7
:100580006C2D0BD0682D09D04C2D39D06A2D35D06B
:10059000742D35D07A2D33D016E038E0E1682F463F
:1005A00020468847B842054609D16C2F26D04FF423
:1005B0008060E168064320468847054604E06C2FCA
:1005C0001AD04FF4807006430DB3A5F141001928ED
:1005D00002D8203546F400664A4629462046266061
:1005E0004E46FFF7FFFD80B101280BD0F61D26F027
:1005F000070000F1080956E74020E4E78020D8E72B
:100600000020D6E706F104094DE7284652E7206AA4
:10061000BDE8F09FA8870000032A40F2308010F068
:10062000030C00F0158011F8013BBCF1020F62448D
:1006300098BF11F801CB00F8013B38BF11F8013B1E
:10064000A2F1040298BF00F801CB38BF00F8013BCB
:1006500011F0030300F0F280083AC0F0088051F86E
:10066000043B083A51F804CBA0E80810F5E7121D46
:100670005CBF51F8043B40F8043BAFF30080D20765
:1006800024BF11F8013B11F801CB48BF11F8012B31
:1006900024BF00F8013B00F801CB48BF00F8012B54
:1006A000704702F0FF0343EA032242EA024200F0ED
:1006B000F9B84FF0000200B513469446964620392B
:1006C00022BFA0E80C50A0E80C50B1F12001BFF40B
:1006D000F7AF090728BFA0E80C5048BF0CC05DF871
:1006E00004EB890028BF40F8042B08BF704748BFBF
:1006F00020F8022B11F0804F18BF00F8012B704733
:1007000070477047704770472DE9F0470D4699468E
:100710009246044600F124080168880604D5E06981
:1007200021F01001216000E00120A84201DD471BFB
:1007300000E00027A1697A1902EB0900081AA061FC
:100740002078C00602D42046FFF7EAFD002608E024
:10075000D4E901211AF806009047206A401C761C53
:1007600020624E45F4DB2078C0060AD52046FFF70C
:10077000D7FD06E0D4E9012130209047206A401CD3
:100780002062381EA7F10107F4DC07E0D4E901215B
:1007900018F805009047206A401C2062281EA5F129
:1007A0000105F3DC2046FFF7D1FD2078000602D5D5
:1007B0000220BDE8F0870120FBE7000001694A1C28
:1007C00002610878704700B58FB0CDE90131002192
:1007D000059105497944CDE9031011466846FFF7B4
:1007E00057FE0FB000BD0000E5FFFFFF10B54369E5
:1007F00013B1AFF3008001E0FFF7B9FD012010BD98
:10080000127800F124010A7000224A700122EDE7FB
:1008100011684FF0FF32E9E7074B70B50D467B4496
:10082000FFF7D1FF0446284600F05CF810B14FF006
:10083000FF3070BD204670BDFF1B000010B5203A90
:10084000C0F00B80B1E81850203AA0E81850B1E889
:100850001850A0E81850BFF4F5AF5FEA027C24BF3F
:10086000B1E81850A0E8185044BF18C918C0BDE836
:1008700010405FEA827C24BF51F8043B40F8043BFF
:1008800008BF7047D20728BF31F8023B48BF11F8B4
:10089000012B28BF20F8023B48BF00F8012B70470E
:1008A0004FF000020429C0F0128010F0030C3FF456
:1008B00002AFCCF1040CBCF1020F18BF00F8012B01
:1008C000A8BF20F8022BA1EB0C01FFF7F4BE5FEAF2
:1008D000C17C24BF00F8012B00F8012B48BF00F8B1
:1008E000012B7047007B00F080007047754600F0D8
:1008F0002BF8AE4605006946534620F007008546B2
:1009000018B020B5FFF7ECFCBDE820404FF0000622
:100910004FF000074FF000084FF0000B21F00701E7
:10092000AC46ACE8C009ACE8C009ACE8C009ACE82A
:10093000C0098D46704710B50446AFF300802046CD
:10094000BDE81040FFF76CBC0048704754D9002048
:1009500000BFFEE77047000070B50446B3F5804F56
:1009600013D1D1E9000540EA05108D6840EA052061
:100970008D6928438D8940EA054054F82250064E7F
:100980003540284344F8220003E06FF0704044F8FB
:100990002200002070BD00000000F0CF70B50246BC
:1009A000086852F8200020F001000E6842F8260086
:1009B0008868082801D1402300E0002348681843D4
:1009C0008E683043CE6830430E6930434E69304301
:1009D000CE6930430E6A30434E6A30438E6A3043EC
:1009E000CE6A30430E6B40EA060488690443486BC4
:1009F0000443074D45F4806545F4E025086852F846
:100A00002000A84320430E6842F82600002070BD55
:100A10007FFB080010B50346D1E9000440EA04104A
:100A20008C6840EA04208C8940EA0444088A401E0D
:100A300044EA0054087D801E44EA00608C6920432B
:100A4000541C53F8244004F040442043541C43F801
:100A50002400002010BD000070B50446002594F865
:100A60002100022803D00420A0630125C1E02068F2
:100A7000006820F00E00216808602068006820F0FF
:100A80000100216808605C492068884252D95A49AF
:100A900078392068884201D1012047E056496439FD
:100AA0002068884201D1102040E053495039206825
:100AB000884201D1801539E04F493C39206888428D
:100AC00001D1801432E04C4928392068884202D193
:100AD0004FF480302AE0484914392068884202D116
:100AE0004FF4801022E044492068884201D140043C
:100AF0001CE042492068884201D1012016E03F49AC
:100B000014312068884201D110200FE03B49283180
:100B10002068884201D1801508E038493C312068BE
:100B2000884201D1801401E04FF480303349091F1D
:100B3000086051E0304978392068884201D10120AD
:100B400047E02D4964392068884201D1102040E0F7
:100B5000294950392068884201D1801539E0264959
:100B60003C392068884201D1801432E0224928397A
:100B70002068884202D14FF480302AE01E4914399F
:100B80002068884202D14FF4801022E01A49206880
:100B9000884201D140041CE018492068884201D1F4
:100BA000012016E0154914312068884201D1102037
:100BB0000FE0124928312068884201D1801508E0F1
:100BC0000E493C312068884201D1801401E04FF485
:100BD0008030094980394860012084F8210000BF35
:100BE000002084F8200000BF606B10B12046616BCC
:100BF0008847284670BD000080000240080402407B
:100C00002DE9F847024600239C467BE14FF001089E
:100C100008FA03F4D1F8008008EA0400A0427DD16C
:100C2000DFF8F4A2D1F80480A8EB0A09D0453AD045
:100C300014DCB8F1030F50D009DCB8F1000F31D04B
:100C4000B8F1010F1CD0B8F1020F49D120E0B8F182
:100C5000110F18D0B8F1120F42D11EE0B9F5881F5C
:100C600025D006DCB9F5803F20D0B9F5801F37D1FB
:100C70001AE0B9F5001F18D0B9F5041F30D117E0FC
:100C8000D1F80CC02DE0D1F80C8008F1040C28E05C
:100C9000D1F80C8008F1080C23E0D1F80C8008F1A1
:100CA0000C0C1EE000BF00BF00BF00BF00BF00BFB4
:100CB000D1F80880B8F1000F02D14FF0040C0BE01E
:100CC000D1F80880B8F1010F03D14FF0080C14617E
:100CD00002E04FF0080C546103E04FF0000C00E01C
:100CE00000BF00BFFF2801D8904601E002F10408D0
:100CF0004646FF2802D84FEA830803E0A3F108081C
:100D00004FEA88084746D6F800804FF00F0909FAE5
:100D100007F928EA09080CFA07F900E07AE048EA3E
:100D20000908C6F80080D1F8048008F08058B8F1AE
:100D3000805F6FD100BFDFF8E481D8F8188048F0F9
:100D40000108DFF8D891C9F81880C846D8F818808B
:100D500008F00108CDF8008000BF00BF4FEAB938A5
:100D60004FEA930958F829504FEA83784FEA1879E7
:100D70004FF00F0808FA09F825EA0805DFF8A08106
:100D8000424502D14FF0000824E0DFF89881424547
:100D900002D14FF001081DE0DFF88C81424502D1FD
:100DA0004FF0020816E0DFF88481424502D14FF08F
:100DB00003080FE0DFF87881424502D14FF00408C4
:100DC00008E0DFF87081424502D14FF0050801E0EC
:100DD0004FF006084FEA83794FEA197908FA09F8C3
:100DE00048EA0505DFF850814FEA930948F8295091
:100DF000D1F8048008F48038B8F5803F0BD1DFF8D3
:100E00003C81D8F8008048EA0008DFF83091C9F842
:100E100000800AE075E0DFF82481D8F8008028EA35
:100E20000008DFF81891C9F80080D1F8048008F4B0
:100E30000038B8F5003F0ED1DFF8008108F1040852
:100E4000D8F8008048EA0008DFF8F09009F10409BA
:100E5000C9F800800DE0DFF8E48008F10408D8F854
:100E6000008028EA0008DFF8D49009F10409C9F8E5
:100E70000080D1F8048008F48018B8F5801F0ED1E6
:100E8000DFF8B88008F10808D8F8008048EA0008C0
:100E9000DFF8A89009F10809C9F800800DE0DFF833
:100EA0009C8008F10808D8F8008028EA0008DFF8DC
:100EB0008C9009F10809C9F80080D1F8048008F481
:100EC0000018B8F5001F0ED1DFF8708008F10C088B
:100ED000D8F8008048EA0008DFF8609009F10C09B2
:100EE000C9F800800DE0DFF8548008F10C08D8F84C
:100EF000008028EA0008DFF8449009F10C09C9F8DD
:100F000000805B1CD1F8008028FA03F8B8F1000FCC
:100F10007FF47CAEBDE8F88700001110001002409D
:100F200000080140000C0140001001400014014085
:100F300000180140001C014008000140000401406D
:100F4000024693680B400BB1012000E0002070477F
:100F500010B5C26821EA020302EA010443EA04432D
:100F6000036110BD0AB1016101E00B040361704728
:100F70000148006870470000200000200348006816
:100F8000034909780844014908607047200000209F
:100F90002800002010B50848006840F010000649FD
:100FA0000860052000F080F80F2000F007F800F03E
:100FB0002BF8002010BD00000020024070B5044650
:100FC0000E4800784FF47A71B1FBF0F00C490968D3
:100FD000B1FBF0F5284600F073FC08B1012070BDAC
:100FE000102C07D200222146501E00F01EF80548A2
:100FF000046001E00120F2E70020F0E72800002073
:101000000000002024000020704701460846002808
:1010100009DB00F01F0301229A4043099B0003F102
:10102000E023C3F8002100BF70472DE9F05F804640
:101030000D461646002701F075F9074639462A463F
:10104000334601F00700C0F1070ABAF1040F02D9D4
:101050004FF0040A01E0C0F1070AD14600F1040A8A
:10106000BAF1070F02D24FF0000A01E0A0F1030A23
:10107000D4464FF0010A0AFA09FAAAF1010A0AEA6B
:10108000020A0AFA0CFA4FF0010B0BFA0CFBABF157
:10109000010B0BEA030B4AEA0B042146404601F020
:1010A00049F9BDE8F09F000000BF00F00702064BC1
:1010B00019684FF6FF031940044B0B4343EA022122
:1010C000014B196000BF70470CED00E00000FA050D
:1010D00070B504460D460CB9012070BD5A48006831
:1010E00000F00700A8420ED25748006820F0070021
:1010F0002843554908600846006800F00700A842E8
:1011000001D00120E9E7207800F0020002281DD17B
:10111000207800F00400042805D14C48406840F4D1
:10112000E0604A494860207800F00800082805D1AE
:101130004648406840F4605044494860434840682D
:1011400020F0F000A168084340494860207800F092
:10115000010078B36068012806D13C48006800F4BB
:10116000003090B90120B8E76068022806D13748FE
:10117000006800F0007040B90120AEE73348006815
:1011800000F0020008B90120A7E73048406820F0CD
:101190000300616808432D494860FFF7E9FE0646F1
:1011A00009E0FFF7E5FE801B41F28831884202D951
:1011B000032092E707E02548406800F00C006168D2
:1011C000B0EB810FEDD12048006800F00700A84285
:1011D0000ED91D48006820F0070028431A4908600E
:1011E0000846006800F00700A84201D0012074E71B
:1011F000207800F00400042807D11448406820F447
:10120000E060E168084311494860207800F0080078
:10121000082808D10D48406820F46050216940EA50
:10122000C1000A49486000F03FF808494968C1F325
:101230000311074A515CC840064908600648006827
:10124000FFF7BCFE002048E70020024000100240EB
:10125000F48B0008000000202400002001480068F2
:10126000704700000000002000B5FFF7F7FF0449B9
:101270004968C1F30221034A515CC84000BD000027
:1012800000100240048C000800B5FFF7E7FF044996
:101290004968C1F3C221034A515CC84000BD000047
:1012A00000100240048C0008F0B585B00FF26C0C01
:1012B0009CE8E01001A8A0E8E0101CA52D680095AE
:1012C00000210022002300240020194D696801F04C
:1012D0000C05F5B1042D02D0082D19D101E01548F7
:1012E00019E001ADC1F38346AC5D01F4803555B121
:1012F0000F4D6D68C5F340451DF805200D4D654344
:10130000B5FBF2F302E00C4D04FB05F3184602E0D6
:1013100000BF084800BF00BF05B0F0BD02030405D0
:10132000060708090A0B0C0D0E0F10100102000031
:101330000010024000127A0000093D00F8B5044692
:101340000CB90120F8BD207800F00100002878D009
:10135000F848406800F00C0004280CD0F5484068BC
:1013600000F00C00082811D1F248406800F48030E9
:10137000B0F5803F0AD1EF48006800F40030002843
:101380005FD0606800285CD10120DBE700BF6068A7
:10139000B0F5803F06D1E748006840F48030E54969
:1013A000086028E0606858B9E248006820F480309E
:1013B000E04908600846006820F4802008601AE0D0
:1013C0006068B0F5A02F0BD1DA48006840F48020A7
:1013D000D84908600846006840F4803008600AE098
:1013E000D448006820F48030D2490860084600687C
:1013F00020F48020086000BF606888B1FFF7B8FD66
:10140000054606E0FFF7B4FD401B642801D9032020
:1014100098E7C848006800F400300028F2D010E0D7
:10142000FFF7A6FD054606E0FFF7A2FD401B642876
:1014300001D9032086E7BF48006800F40030002887
:10144000F2D1207800F00200022857D1B948406854
:1014500000F00C0050B1B748406800F00C000828BC
:1014600018D1B448406800F4803098B9B148006899
:1014700000F0020020B12069012801D0012061E7BD
:10148000AC48006820F0F800616940EAC100A94951
:10149000086033E02069E8B10120A7490860FFF740
:1014A00067FD054606E0FFF763FD401B022801D9F2
:1014B000032047E79F48006800F002000028F2D0B0
:1014C0009C48006820F0F800616940EAC100994931
:1014D000086013E0002098490860FFF749FD0546C1
:1014E00006E0FFF745FD401B022801D9032029E74C
:1014F0009048006800F002000028F2D1207800F047
:10150000080008282DD1A069B8B101208B490860D6
:10151000FFF72EFD054606E0FFF72AFD401B0228D7
:1015200001D903200EE78348406A00F0020000283A
:10153000F2D0012000F022FD13E000207F49086076
:10154000FFF716FD054606E0FFF712FD401B0228D7
:1015500001D90320F6E67748406A00F0020000282F
:10156000F2D1207800F00400042873D100277148DC
:10157000C06900F0805070B900BF6E48C06940F08B
:1015800080506C49C8610846C06900F080500090E6
:1015900000BF00BF01276A48006800F48070B0B93E
:1015A0006748006840F4807065490860FFF7E0FC18
:1015B000054606E0FFF7DCFC401B642801D9032048
:1015C000C0E65F48006800F480700028F2D000BFD9
:1015D000E068012806D15748006A40F001005549EB
:1015E000086227E0E06858B95248006A20F001001C
:1015F000504908620846006A20F00400086219E0B9
:10160000E06805280BD14B48006A40F004004949C6
:1016100008620846006A40F0010008620AE0454896
:10162000006A20F00100434908620846006A20F081
:101630000400086200BFE068A0B1FFF799FC05460E
:1016400009E0FFF795FC401B41F28831884202D93E
:10165000032077E622E03748006A00F00200002805
:10166000EFD012E0FFF784FC054608E0FFF780FCAE
:10167000401B41F28831884201D9032062E62D489F
:10168000006A00F002000028F0D1012F05D129489E
:10169000C06920F080502749C86100BFE069C8B325
:1016A0002448406800F00C00082860D0E069022857
:1016B00048D1002020490866FFF75AFC054606E09D
:1016C000FFF756FC401B022801D903203AE61948CF
:1016D000006800F000700028F2D1206AB0F5803F69
:1016E00007D11448406820F40030A168084311492C
:1016F0004860D4E9080108430E49496821F474118F
:1017000008430C49486001200B490866FFF730FC8C
:10171000054607E03DE0FFF72BFC401B022801D9FE
:1017200003200FE60348006800F000700028F2D0A4
:101730002FE00000001002400000424280044242BC
:1017400000700040002014490866FFF711FC0546B0
:1017500006E0FFF70DFC401B022801D90320F1E54C
:101760000E48006800F000700028F2D111E0E06936
:10177000012800D1E6E50948466806F48031206A70
:10178000814204D106F47011606A814201D00120C7
:10179000D8E50020D6E500000000424200100240DB
:1017A00070B504460E4615461CB1A069B0F5807FA1
:1017B00001D1012070BD94F8410028B9002084F8BF
:1017C0004000204600F020F804F108012068FFF7EF
:1017D000E5F83146A2682068FFF71CF92946236B1B
:1017E000D4E90102FFF7B8F8A168206850F8210099
:1017F00040F00100A268216841F82200012084F82D
:1018000041000020D6E7000010B586B0044600BFB6
:101810001E48406940F480701C4948610846406990
:1018200000F48070019000BF00BF00BF08468069CF
:1018300040F0200088610846806900F02000019097
:1018400000BF00BF00BF0846806940F040008861CB
:101850000846806900F04000019000BF00BF4CF2D4
:101860000370029002200390012004900320059051
:1018700002A90748FFF7C4F94FF68070029002A949
:101880000448FFF7BDF906B010BD0000001002408B
:101890000014014000180140042808D14FF0E02155
:1018A000096941F004014FF0E022116107E04FF0B7
:1018B000E021096921F004014FF0E0221161704735
:1018C00070B504462546681EB0F1807F01D3012023
:1018D0000FE0681E4FF0E02148610F214FF0FF300C
:1018E00000F028FD00204FF0E0218861072008610A
:1018F000002070BD7047704710B504460CB9012038
:1019000010BD94F83D0028B9002084F83C00204622
:1019100000F026F8022084F83D00211D206800F028
:1019200077FB012084F8460000BF84F83E000121C7
:101930003F200155402001554120015500BF00BF07
:10194000012084F8420043200155442001554520E0
:10195000015500BF012084F83D000020D0E70000C1
:1019600038B504460E492068884217D100BF00BF31
:101970000C48C06940F010000A49C8610846C069B7
:1019800000F01000009000BF00BF00BF0322012143
:101990003620FFF74AFB3620FFF737FB38BD000043
:1019A0000010004000100240014691F83D0001285F
:1019B00001D001207047022081F83D000868C0680E
:1019C00040F001000B68D860164B0868984213D0AD
:1019D000154B086898420FD00868B0F1804F0BD0C3
:1019E000124B0868984207D0114B0868984203D000
:1019F000104B086898420CD10868806800F0070214
:101A0000062A0CD00868006840F001000B681860D6
:101A100005E00868006840F001000B6818600020CD
:101A2000C8E70000002C01400034014000040040E1
:101A300000080040000C0040704710B504462068C4
:101A40000069C0F34000D8B12068C068C0F340000E
:101A5000B0B16FF002002168086101202077206892
:101A6000806900F0030018B12046FFF7E5FF05E0AC
:101A7000204600F0ADF8204600F0ABF800202077BB
:101A800020680069C0F38000D8B12068C068C0F346
:101A90008000B0B16FF00400216808610220207757
:101AA0002068806900F4407018B12046FFF7C4FF39
:101AB00005E0204600F08CF8204600F08AF800206F
:101AC000207720680069C0F3C000D8B12068C068E2
:101AD000C0F3C000B0B16FF00800216808610420B5
:101AE00020772068C06900F0030018B12046FFF796
:101AF000A3FF05E0204600F06BF8204600F069F8EF
:101B00000020207720680069C0F30010D8B1206859
:101B1000C068C0F30010B0B16FF010002168086118
:101B2000082020772068C06900F4407018B1204672
:101B3000FFF782FF05E0204600F04AF8204600F05B
:101B400048F8002020772068006900F0010058B1B3
:101B50002068C06800F0010030B16FF0010021681A
:101B60000861204600F036F820680069C0F3C01014
:101B700058B12068C068C0F3C01030B16FF0800069
:101B8000216808612046FFF7B5FE20680069C0F3B0
:101B9000801058B12068C068C0F3801030B16FF079
:101BA000400021680861204600F026F8206800699E
:101BB000C0F3401058B12068C068C0F3401030B185
:101BC0006FF02000216808612046FFF794FE10BDE9
:101BD0007047704710B5044605492068884205D112
:101BE00000BF20210348FFF7B3F900BF10BD00007C
:101BF0000010004000180140704770472DE9F04781
:101C00000446206805682068C668206847694FF068
:101C10000008C14605F00F08B8F1000F0AD105F021
:101C2000200038B106F0200020B1204600F068FA0C
:101C3000BDE8F087B8F1000F71D007F0010018B9C6
:101C400006F4907000286AD005F0010030B106F467
:101C5000807018B1E06B40F00100E06305F0040013
:101C600030B107F0010018B1E06B40F00200E06312
:101C700005F0020030B107F0010018B1E06B40F050
:101C80000400E06305F0080048B106F0200010B938
:101C900007F0010018B1E06B40F00800E063E06B72
:101CA00068B305F0200028B106F0200010B12046EE
:101CB00000F026FA20684069C0F38019E06B00F05C
:101CC000080010B9B9F1000F22D0204600F0F8F951
:101CD0002068406900F04000B0B12068406920F001
:101CE000400021684861606B50B11848616B4863DF
:101CF000606BFEF7B1FE10B1606B416B88470CE082
:101D00002046FFF77AFF08E02046FFF776FF04E061
:101D10002046FFF772FF0020E06389E7FFE705F048
:101D2000800030B106F0800018B1204600F0B6FA0D
:101D30007EE705F0400030B106F0400018B12046C3
:101D400000F0CEF974E700BF72E70000AD20000894
:101D500010B504460CB9012010BDA06900B100E027
:101D600000BF94F8390028B9002084F838002046D4
:101D700000F028F8242084F839002068C06820F496
:101D800000502168C860204600F00AFA2068006907
:101D900020F49040216808612068406920F02A0002
:101DA000216848612068C06840F400502168C8601C
:101DB0000020E063202084F8390084F83A000020F5
:101DC000CAE7000010B586B004462849206888425A
:101DD0004AD100BF00BF2648806940F00400244972
:101DE00088610846806900F00400019000BF00BFD0
:101DF00000BF00BF00BF0846806940F00400886152
:101E00000846806900F00400019000BF00BF00BFD9
:101E100000BF00BF0846806940F4804088610846E2
:101E2000806900F48040019000BF00BF00BF4815EA
:101E3000029002200390012004900320059002A943
:101E40000C48FEF7DDFE4FF4806002900020039006
:101E500002A90848FEF7D4FE2520FFF7D6F8032292
:101E600011462520FFF7E1F806B010BD003801400B
:101E7000001002400008014010B5034693F83A00F4
:101E800020282FD101B10AB9012010BD00BF93F85D
:101E90003800012801D10220F7E7012083F838003B
:101EA00000BF99629A85DA850020D863222083F8E2
:101EB0003A0000BF002083F8380000BF1868C068EF
:101EC00040F480701C68E0601868406940F00100D0
:101ED0001C6860611868C06840F020001C68E06001
:101EE0000020D2E70220D0E71D4A0168914236D196
:101EF0001C49098801F4004189BB1A49098801F489
:101F0000804171B1184909780A2903D00021154A86
:101F1000118024E01349098841F40041114A1180DD
:101F20001DE0114909780D2906D10E49098841F4AF
:101F300080410C4A118012E00B490978094A128845
:101F4000C2F30D02094B995406490988491C054AF8
:101F5000118011460988C72901DD002111807047D1
:101F6000003801401C0000201E0000200802002054
:101F7000704700BFFEE700BFFEE7704708B508499D
:101F80000968C9084FF47A72B1FBF2F1414300913C
:101F900000BF00BF00994A1E00920029F9D108BD78
:101FA0000000002010B5FEF7E9FF06F09DF90128BA
:101FB00001D005F063FF10BD7047000010B50E485A
:101FC0000068C06800F0010078B10C4908698047DA
:101FD000002009490968486200BF64200649096871
:101FE000C86264210448C16000BF6FF0010002496B
:101FF0000968086110BD0000C0AD002094000020F9
:1020000010B50248FFF719FD10BD0000680300205D
:1020100010B50268204B98420ED0204B98420BD04E
:10202000B0F1804F08D01E4B984205D01D4B98420E
:1020300002D01D4B984203D122F070024B681A4324
:10204000154B98420ED0154B98420BD0B0F1804FF3
:1020500008D0134B984205D0124B984202D0124B35
:10206000984203D122F44072CB681A4322F08003D5
:102070004C6943EA040202608B68C3620B688362A6
:10208000054B984202D0054B984201D10B6903637E
:102090000123436110BD0000002C014000340140C9
:1020A0000004004000080040000C004070B50546E8
:1020B0006C6A0020E085E0842046FFF79EFD70BD3D
:1020C0000168C96821F490710268D16001684969AA
:1020D00021F0010102685161202180F83A10704717
:1020E00010B504462068C06820F040002168C86030
:1020F000202084F839002046FFF73AFF002010BD69
:1021000070B5044694F83A00222847D1A068B0F58B
:10211000805F0CD1206950B90025A66A206840680C
:10212000C0F308003080A06A801CA06215E0A56A98
:102130000026A068B0F5805F03D0A06828B92069A8
:1021400018B920684068287004E02068406800F0F2
:102150007F002870A06A401CA062E08D401E80B203
:10216000E085C8B92068C06820F020002168C860F8
:102170002068C06820F480702168C86020684069C9
:1021800020F0010021684861202084F83A002046B0
:10219000FFF7AAFE002070BD0020FCE70220FAE74E
:1021A00070B504462168096921F44051E268114381
:1021B000226811612269A1681143626941EA02053E
:1021C0002168C96841F20C62914329432268D160B9
:1021D0002168496921F44071A26911432268516163
:1021E0002D4A2168914202D1FFF74EF801E0FFF736
:1021F0003BF800EBC00101EB001162689200B1FBFB
:10220000F2F100EBC00202EB001263689B00B2FB2C
:10221000F3F26423B2FBF3F202EBC20303EB02120C
:10222000A1EB8201322202EB01116422B1FBF2F137
:1022300001F0F00100EBC00202EB001263689B00AA
:10224000B2FBF3F26423B2FBF3F201EB021200EBF8
:10225000C00101EB001163689B00B1FBF3F100EBDF
:10226000C00303EB00136668B600B3FBF6F3642605
:10227000B3FBF6F303EBC30606EB0313A1EB8301F9
:10228000322303EB01116423B1FBF3F101F00F01E1
:1022900011442268916070BD00380140014691F8F8
:1022A0003900212828D18868B0F5805F0BD10869F2
:1022B00048B90A6A1088C0F308000B685860086AB9
:1022C000801C086205E00B6A581C086218780B68CD
:1022D0005860C88C401E80B2C88458B90868C0686D
:1022E00020F080000B68D8600868C06840F04000AB
:1022F0000B68D860002070470220FCE710B5064844
:10230000FFF77CFC00BF012204490348FFF7B4FD3E
:102310000028F8D110BD0000D00200201E000020CF
:1023200000BFFEE702480068C0F3022070470000CB
:102330000CED00E010B5002804DB0A07130E054A77
:10234000135406E00A07140E034A00F00F031B1F84
:10235000D45410BD00E400E018ED00E030380A2845
:1023600001D2012070470020704700BF7047000075
:1023700070B5044600204FF0E0210861FFF78CFAA9
:10238000E11704EB5171C1F3CF010C4A1180E11741
:1023900004EB5171CD104FF47A7045434FF0E020BB
:1023A000006940F002004FF0E021086108464561F5
:1023B000006940F00100086170BD000014000020B9
:1023C00030B50446002504E04FF47A7000F004F8BC
:1023D0006D1CA542F8D330BD70B5034600224FF006
:1023E000E02675690D4E368803FB06F44FF0E026B3
:1023F000B16910E04FF0E026B06988420BD0884206
:1024000002D20E1A324402E02E1A0E443244014621
:10241000A24200D300E0EDE700BF70BD1400002031
:1024200000BF054A126802F04002002AF9D0C2B289
:10243000014B1B1D1A607047003801401CB506484F
:10244000012100238022CDE9001004A1064805F0F7
:102450001BFF05F0A5FB1CBD040000207374617216
:10246000745F7461736B0000D561000800B585B0BE
:1024700000BF00BF2848806940F0400026498861BD
:102480000846806900F04000009000BF00BF00BF18
:1024900000BF00BF0846806940F0400088610846E0
:1024A000806900F04000009000BF00BF00BF00BF87
:1024B00000BF0846806940F00400886108468069D2
:1024C00000F00400009000BF00BF00BF102001908A
:1024D00000200290012003900320049001A90F48DE
:1024E000FEF78EFB0820019000200290012003904F
:1024F0000320049001A90948FEF782FB0120019006
:1025000000200290022003900320049001A90448B7
:10251000FEF776FB05B000BD001002400018014038
:102520000008014070B50446002514B1012022497D
:1025300008702148007848B310212048FEF700FDBC
:1025400050B108211D48FEF7FBFC28B101211C48B1
:10255000FEF7F6FC012819D10A20FFF731FF002011
:102560001549087010211548FEF7EAFC00B901254D
:1025700008211248FEF7E4FC00B9022501211048A9
:10258000FEF7DEFC012815D1032513E010210B48CE
:10259000FEF7D6FC01280DD108210848FEF7D0FC33
:1025A000012807D101210648FEF7CAFC10B9012015
:1025B00001490870284670BD29000020001801401C
:1025C0000008014070B50446002609480588408887
:1025D00045430021084602F03FFD02F00FFE00BF18
:1025E00002E004480480761CAE42FAD370BD0000BD
:1025F000580300200008006C10B504464948847157
:10260000002C45D1F020474908804FF4A070488045
:102610000846808845F21051884210D14FF430505E
:10262000404908814FF4285048814FF42C5088814C
:102630004FF4F07008804FF4487048801AE0394831
:10264000808841F6631188420DD12C2035490881DC
:102650002B2048812A2088814FF4F07008804FF4A5
:102660004870488006E02C202E4908812A204881A5
:102670002B2088812B48808845F2103188424CD12C
:102680004FF4A070274908804FF4F070488044E070
:102690004FF4A07023490880F020488008468088C5
:1026A00045F21051884210D14FF430501D49088135
:1026B0004FF4285048814FF42C5088814FF44870D3
:1026C00008804FF4F07048801AE01648808841F680
:1026D000631188420DD12C20124908812A2048819B
:1026E0002B2088814FF4487008804FF4F0704880A8
:1026F00006E02C200B4908812A2048812B20888164
:102700000848808845F21031884206D14FF4F070B5
:10271000044908804FF4A0704880002002F084FB38
:1027200010BD00005803002010B5CF2002F05AFD64
:10273000002002F04BFDC12002F048FD302002F0E5
:1027400045FDED2002F04EFD642002F03FFD032028
:1027500002F03CFD122002F039FD812002F036FD2E
:10276000E82002F03FFD852002F030FD102002F04D
:102770002DFD7A2002F02AFDCB2002F033FD392016
:1027800002F024FD2C2002F021FD002002F01EFDAD
:10279000342002F01BFD022002F018FDF72002F0A9
:1027A00021FD202002F012FDEA2002F01BFD002096
:1027B00002F00CFD002002F009FDC02002F012FD25
:1027C0001B2002F003FDC12002F00CFD012002F0ED
:1027D000FDFCC52002F006FD302002F0F7FC3020A1
:1027E00002F0F4FCC72002F0FDFCB72002F0EEFC82
:1027F000362002F0F7FC482002F0E8FC3A2002F014
:10280000F1FC552002F0E2FCB12002F0EBFC0020CC
:1028100002F0DCFC1A2002F0D9FCB62002F0E2FC47
:102820000A2002F0D3FCA22002F0D0FCF22002F039
:10283000D9FC002002F0CAFC262002F0D3FC0120C3
:1028400002F0C4FCE02002F0CDFC0F2002F0BEFC40
:102850002A2002F0BBFC282002F0B8FC082002F07D
:10286000B5FC0E2002F0B2FC082002F0AFFC5420B0
:1028700002F0ACFCA92002F0A9FC432002F0A6FC67
:102880000A2002F0A3FC0F2002F0A0FC002002F0BE
:102890009DFC002002F09AFC002002F097FC002032
:1028A00002F094FCE12002F09DFC002002F08EFC7E
:1028B000152002F08BFC172002F088FC072002F0A4
:1028C00085FC112002F082FC062002F07FFC2B2008
:1028D00002F07CFC562002F079FC3C2002F076FCF1
:1028E000052002F073FC102002F070FC0F2002F0B3
:1028F0006DFC3F2002F06AFC3F2002F067FC0F20D5
:1029000002F064FC2B2002F06DFC002002F05EFC63
:10291000002002F05BFC012002F058FC3F2002F096
:1029200055FC2A2002F05EFC002002F04FFC002043
:1029300002F04CFC002002F049FCEF2002F046FCC3
:10294000112002F04FFC7820FFF73AFD292002F019
:1029500049FC10BD10B5ED2002F044FC012002F04E
:1029600035FCFE2002F032FCEE2002F03BFCDE20C3
:1029700002F02CFC212002F029FCF12002F032FCB4
:10298000012002F023FCDF2002F02CFC102002F0DA
:102990001DFCC42002F026FC8F2002F017FCC6208C
:1029A00002F020FC002002F011FCE22002F00EFCFC
:1029B000E22002F00BFCE22002F008FCBF2002F053
:1029C00011FCAA2002F002FCB02002F00BFC0D204A
:1029D00002F0FCFB002002F0F9FB0D2002F0F6FBF8
:1029E000002002F0F3FB112002F0F0FB002002F0C7
:1029F000EDFB192002F0EAFB002002F0E7FB2120AA
:102A000002F0E4FB002002F0E1FB2D2002F0DEFBEF
:102A1000002002F0DBFB3D2002F0D8FB002002F09A
:102A2000D5FB5D2002F0D2FB002002F0CFFB5D2041
:102A300002F0CCFB002002F0C9FBB12002F0D2FB77
:102A4000802002F0C3FB002002F0C0FB8B2002F0CC
:102A5000BDFB002002F0BAFB962002F0B7FB00207D
:102A600002F0B4FBB22002F0BDFB002002F0AEFB8E
:102A7000002002F0ABFB022002F0A8FB002002F0D5
:102A8000A5FB032002F0A2FB002002F09FFBB32075
:102A900002F0A8FB002002F099FB002002F096FB58
:102AA000002002F093FB002002F090FB002002F0D7
:102AB0008DFB002002F08AFB002002F087FB002043
:102AC00002F084FB002002F081FB002002F07EFB7C
:102AD000002002F07BFB002002F078FB002002F0D7
:102AE00075FB002002F072FB002002F06FFB00205B
:102AF00002F06CFB002002F069FB002002F066FB94
:102B0000002002F063FB002002F060FB002002F0D6
:102B10005DFB002002F05AFB002002F057FB002072
:102B200002F054FBB42002F05DFB8B2002F04EFB60
:102B3000002002F04BFB962002F048FB002002F040
:102B400045FBA12002F042FB002002F03FFBB52034
:102B500002F048FB022002F039FB002002F036FBB5
:102B6000032002F033FB002002F030FB042002F0CF
:102B70002DFB002002F02AFBB62002F033FB0020E0
:102B800002F024FB002002F021FBB72002F02AFB18
:102B9000002002F01BFB002002F018FB3F2002F097
:102BA00015FB002002F012FB5E2002F00FFB00205C
:102BB00002F00CFB642002F009FB002002F006FB8F
:102BC0008C2002F003FB002002F000FBAC2002F09E
:102BD000FDFA002002F0FAFADC2002F0F7FA0020F9
:102BE00002F0F4FA702002F0F1FA002002F0EEFA9E
:102BF000902002F0EBFA002002F0E8FAEB2002F05D
:102C0000E5FA002002F0E2FADC2002F0DFFA002010
:102C100002F0DCFAB82002F0E5FA002002F0D6FA61
:102C2000002002F0D3FA002002F0D0FA002002F0D7
:102C3000CDFA002002F0CAFA002002F0C7FA002004
:102C400002F0C4FA002002F0C1FABA2002F0CAFA77
:102C5000242002F0BBFA002002F0B8FA002002F0B3
:102C6000B5FA002002F0B2FAC12002F0BBFA20202F
:102C700002F0ACFA002002F0A9FA542002F0A6FA01
:102C8000002002F0A3FAFF2002F0A0FA002002F0D8
:102C90009DFAC22002F0A6FA0A2002F097FA00205C
:102CA00002F094FA042002F091FA002002F08EFA69
:102CB000C32002F097FA3C2002F088FA002002F0CC
:102CC00085FA3A2002F082FA002002F07FFA3920D9
:102CD00002F07CFA002002F079FA372002F076FA4E
:102CE000002002F073FA3C2002F070FA002002F09B
:102CF0006DFA362002F06AFA002002F067FA3220FC
:102D000002F064FA002002F061FA2F2002F05EFA6D
:102D1000002002F05BFA2C2002F058FA002002F0AA
:102D200055FA292002F052FA002002F04FFA26202C
:102D300002F04CFA002002F049FA242002F046FA90
:102D4000002002F043FA242002F040FA002002F0B2
:102D50003DFA232002F03AFA002002F037FA3C2034
:102D600002F034FA002002F031FA362002F02EFA96
:102D7000002002F02BFA322002F028FA002002F0A4
:102D800025FA2F2002F022FA002002F01FFA2C2050
:102D900002F01CFA002002F019FA292002F016FABB
:102DA000002002F013FA262002F010FA002002F0B0
:102DB0000DFA242002F00AFA002002F007FA24207B
:102DC00002F004FA002002F001FA232002F0FEF9DA
:102DD000002002F0FBF9C42002F004FA622002F0A5
:102DE000F5F9002002F0F2F9052002F0EFF90020D9
:102DF00002F0ECF9842002F0E9F9002002F0E6F993
:102E0000F02002F0E3F9002002F0E0F9182002F0CF
:102E1000DDF9002002F0DAF9A42002F0D7F9002051
:102E200002F0D4F9182002F0D1F9002002F0CEF916
:102E3000502002F0CBF9002002F0C8F90C2002F07B
:102E4000C5F9002002F0C2F9172002F0BFF90020F6
:102E500002F0BCF9952002F0B9F9002002F0B6F9B1
:102E6000F32002F0B3F9002002F0B0F9E62002F0FE
:102E7000ADF9002002F0AAF9C52002F0B3F9322022
:102E800002F0A4F9002002F0A1F9442002F09EF91A
:102E9000002002F09BF9652002F098F9002002F072
:102EA00095F9762002F092F9002002F08FF988203F
:102EB00002F08CF9002002F089F9C62002F092F9A4
:102EC000202002F083F9002002F080F9172002F0A0
:102ED0007DF9002002F07AF9012002F077F9002054
:102EE00002F074F9C72002F07DF9002002F06EF9BB
:102EF000002002F06BF9002002F068F9002002F0D7
:102F000065F9C82002F06EF9002002F05FF9002098
:102F100002F05CF9002002F059F9002002F056F9A5
:102F2000C92002F05FF9002002F050F9002002F001
:102F30004DF9002002F04AF9002002F047F9002084
:102F400002F044F9002002F041F9002002F03EF9BD
:102F5000002002F03BF9002002F038F9002002F0D6
:102F600035F9002002F032F9002002F02FF900209C
:102F700002F02CF9002002F029F9002002F026F9D5
:102F8000002002F023F9E02002F02CF9162002F0D4
:102F90001DF9002002F01AF91C2002F017F9002098
:102FA00002F014F9212002F011F9002002F00EF9CC
:102FB000362002F00BF9002002F008F9462002F05A
:102FC00005F9002002F002F9522002F0FFF800207B
:102FD00002F0FCF8642002F0F9F8002002F0F6F8A4
:102FE0007A2002F0F3F8002002F0F0F88B2002F0D3
:102FF000EDF8002002F0EAF8992002F0E7F800204E
:1030000002F0E4F8A82002F0E1F8002002F0DEF877
:10301000B92002F0DBF8002002F0D8F8C42002F05A
:10302000D5F8002002F0D2F8CA2002F0CFF8002034
:1030300002F0CCF8D22002F0C9F8002002F0C6F865
:10304000D92002F0C3F8002002F0C0F8E02002F01E
:10305000BDF8002002F0BAF8F32002F0B7F8002023
:1030600002F0B4F8E12002F0BDF8162002F0AEF84C
:10307000002002F0ABF81C2002F0A8F8002002F0BB
:10308000A5F8222002F0A2F8002002F09FF83620D6
:1030900002F09CF8002002F099F8452002F096F822
:1030A000002002F093F8522002F090F8002002F085
:1030B0008DF8642002F08AF8002002F087F87A2068
:1030C00002F084F8002002F081F88B2002F07EF8F4
:1030D000002002F07BF8992002F078F8002002F03E
:1030E00075F8A82002F072F8002002F06FF8B920FD
:1030F00002F06CF8002002F069F8C42002F066F8D3
:10310000002002F063F8CA2002F060F8002002F00C
:103110005DF8D22002F05AF8002002F057F8D820CB
:1031200002F054F8002002F051F8E02002F04EF8CE
:10313000002002F04BF8F32002F048F8002002F0E3
:1031400045F8E22002F04EF8052002F03FF800209A
:1031500002F03CF80B2002F039F8002002F036F8BB
:103160001B2002F033F8002002F030F8342002F087
:103170002DF8002002F02AF8442002F027F8002061
:1031800002F024F84F2002F021F8002002F01EF88F
:10319000612002F01BF8002002F018F8792002F0FC
:1031A00015F8002002F012F8882002F00FF8002035
:1031B00002F00CF8972002F009F8002002F006F85F
:1031C000A62002F003F8002002F000F8B72001F07A
:1031D000FDFF002001F0FAFFC22001F0F7FF002000
:1031E00001F0F4FFC72001F0F1FF002001F0EEFF35
:1031F000D12001F0EBFF002001F0E8FFD62001F024
:10320000E5FF002001F0E2FFDD2001F0DFFF0020FC
:1032100001F0DCFFF32001F0D9FF002001F0D6FF20
:10322000E32001F0DFFF052001F0D0FF002001F0D6
:10323000CDFF0A2001F0CAFF002001F0C7FF1C20CB
:1032400001F0C4FF002001F0C1FF332001F0BEFFF8
:10325000002001F0BBFF442001F0B8FF002001F086
:10326000B5FF502001F0B2FF002001F0AFFF622057
:1032700001F0ACFF002001F0A9FF782001F0A6FFCB
:10328000002001F0A3FF882001F0A0FF002001F042
:103290009DFF972001F09AFF002001F097FFA620E4
:1032A00001F094FF002001F091FFB72001F08EFFA4
:1032B000002001F08BFFC22001F088FF002001F008
:1032C00085FFC72001F082FF002001F07FFFD120A1
:1032D00001F07CFF002001F079FFD52001F076FF9E
:1032E000002001F073FFDD2001F070FF002001F0ED
:1032F0006DFFF32001F06AFF002001F067FFE4207A
:1033000001F070FF012001F061FF002001F05EFF7D
:10331000012001F05BFF002001F058FF022001F0C6
:1033200055FF002001F052FF2A2001F04FFF00203E
:1033300001F04CFF3C2001F049FF002001F046FF66
:103340004B2001F043FF002001F040FF5D2001F021
:103350003DFF002001F03AFF742001F037FF00200C
:1033600001F034FF842001F031FF002001F02EFF36
:10337000932001F02BFF002001F028FFA22001F094
:1033800025FF002001F022FFB32001F01FFF0020E5
:1033900001F01CFFBE2001F019FF002001F016FF14
:1033A000C42001F013FF002001F010FFCD2001F038
:1033B0000DFF002001F00AFFD32001F007FF0020DD
:1033C00001F004FFDD2001F001FF002001F0FEFE0E
:1033D000F32001F0FBFE002001F0F8FEE52001F0F3
:1033E00001FF002001F0F2FE002001F0EFFE0020BE
:1033F00001F0ECFE002001F0E9FE022001F0E6FE03
:10340000002001F0E3FE292001F0E0FE002001F0A1
:10341000DDFE3C2001F0DAFE002001F0D7FE4B205B
:1034200001F0D4FE002001F0D1FE5D2001F0CEFEBF
:10343000002001F0CBFE742001F0C8FE002001F056
:10344000C5FE842001F0C2FE002001F0BFFE9320E3
:1034500001F0BCFE002001F0B9FEA22001F0B6FE92
:10346000002001F0B3FEB32001F0B0FE002001F017
:10347000ADFEBE2001F0AAFE002001F0A7FEC42090
:1034800001F0A4FE002001F0A1FECD2001F09EFE7F
:10349000002001F09BFED32001F098FE002001F0F7
:1034A00095FEDC2001F092FE002001F08FFEF3205B
:1034B00001F08CFE002001F089FEE62001F092FE72
:1034C000112001F083FE002001F080FE342001F085
:1034D0007DFE002001F07AFE562001F077FE0020EC
:1034E00001F074FE762001F071FE002001F06EFE06
:1034F000772001F06BFE002001F068FE662001F0ED
:1035000065FE002001F062FE882001F05FFE0020D1
:1035100001F05CFE992001F059FE002001F056FEFA
:10352000BB2001F053FE002001F050FE992001F075
:103530004DFE002001F04AFE662001F047FE00200B
:1035400001F044FE552001F041FE002001F03EFE56
:10355000552001F03BFE002001F038FE452001F02F
:1035600035FE002001F032FE432001F02FFE002046
:1035700001F02CFE442001F029FE002001F026FE7F
:10358000E72001F02FFE322001F020FE002001F0A4
:103590001DFE552001F01AFE002001F017FE7620D6
:1035A00001F014FE002001F011FE662001F00EFE75
:1035B000002001F00BFE672001F008FE002001F062
:1035C00005FE672001F002FE002001F0FFFD8720CC
:1035D00001F0FCFD002001F0F9FD992001F0F6FD5D
:1035E000002001F0F3FDBB2001F0F0FD002001F010
:1035F000EDFD992001F0EAFD002001F0E7FD7720C4
:1036000001F0E4FD002001F0E1FD442001F0DEFDC9
:10361000002001F0DBFD562001F0D8FD002001F074
:10362000D5FD232001F0D2FD002001F0CFFD332095
:1036300001F0CCFD002001F0C9FD452001F0C6FDE0
:10364000002001F0C3FDE82001F0CCFD002001F0D6
:10365000BDFD002001F0BAFD992001F0B7FD00206A
:1036600001F0B4FD872001F0B1FD002001F0AEFDB6
:10367000882001F0ABFD002001F0A8FD772001F0CB
:10368000A5FD002001F0A2FD662001F09FFD0020B5
:1036900001F09CFD882001F099FD002001F096FDCD
:1036A000AA2001F093FD002001F090FDBB2001F065
:1036B0008DFD002001F08AFD992001F087FD00209A
:1036C00001F084FD662001F081FD002001F07EFD07
:1036D000552001F07BFD002001F078FD552001F020
:1036E00075FD002001F072FD442001F06FFD002007
:1036F00001F06CFD442001F069FD002001F066FD41
:10370000552001F063FD002001F060FDE92001F08B
:1037100069FDAA2001F05AFD002001F057FD0020AC
:1037200001F054FD002001F051FD002001F05AFD90
:10373000AA2001F04BFDCF2001F054FD002001F044
:1037400045FD002001F042FD002001F03FFD00207A
:1037500001F03CFD002001F039FD002001F036FDB4
:10376000002001F033FD002001F030FD002001F0C9
:103770002DFD002001F02AFD002001F027FD002092
:1037800001F024FD002001F021FD002001F01EFDCC
:10379000002001F01BFD002001F018FD002001F0C9
:1037A00015FDF02001F01EFD002001F00FFD50205E
:1037B00001F00CFD002001F009FD002001F006FDE4
:1037C000002001F003FDF32001F00CFD002001F0CA
:1037D000FDFCF92001F006FD062001F0F7FC1020A9
:1037E00001F0F4FC292001F0F1FC002001F0EEFCD6
:1037F0003A2001F0F7FC552001F0E8FC112001F01F
:10380000F1FC6420FEF7DCFD292001F0EBFC352003
:1038100001F0E8FC002001F0D9FC512001F0E2FCAD
:10382000FF2001F0D3FC532001F0DCFC2C2001F040
:10383000CDFC552001F0D6FC822001F0C7FC2C20E5
:1038400001F0D0FC10BD10B555214FF4704001F0CF
:10385000DFFCAA214FF2010001F0DAFC52214FF205
:10386000020001F0D5FC08214FF2030001F0D0FC6A
:1038700001214FF2040001F0CBFC0D214FF4304048
:1038800001F0C6FC0D214BF2010001F0C1FC0D213D
:103890004BF2020001F0BCFC34214FF4364001F041
:1038A000B7FC34214BF2016001F0B2FC34214BF241
:1038B000026001F0ADFC0D214FF4314001F0A8FC95
:1038C0000D214BF2011001F0A3FC0D214BF202106F
:1038D00001F09EFC34214FF4374001F099FC342173
:1038E0004BF2017001F094FC34214BF2027001F0B4
:1038F0008FFC00214FF4324001F08AFC00214BF292
:10390000012001F085FC00214BF2022001F080FC37
:1039100024214FF4384001F07BFC24214BF60100B8
:1039200001F076FC24214BF6020001F071FC01212C
:103930004FF43F4001F06CFC0F214FF4334001F095
:1039400067FC0F214BF2013001F062FC0F214BF2BA
:10395000023001F05DFC34214FF4394001F058FC95
:1039600034214BF6011001F053FC34214BF60210C8
:1039700001F04EFC08214FF4354001F049FC0821CC
:103980004BF2015001F044FC08214BF2025001F0CF
:103990003FFC03214FF4424001F03AFC24214FF454
:1039A0003A4001F035FC24214BF6012001F030FCB7
:1039B00024214BF6022001F02BFC00214FF43C4067
:1039C00001F026FC78214BF6014001F021FC00219A
:1039D0004BF6024001F01CFC00214FF43D4001F089
:1039E00017FC78214BF6015001F012FC00214BF638
:1039F000025001F00DFC00214FF43E4001F008FCA4
:103A000064214BF6016001F003FC00214FF45140AA
:103A100001F0FEFB33214DF2011001F0F9FB002112
:103A20004DF2021001F0F4FB34214DF2031001F0CD
:103A3000EFFB00214DF2041001F0EAFB3A214DF2B8
:103A4000051001F0E5FB00214DF2061001F0E0FB4E
:103A50004A214DF2071001F0DBFB00214DF2081066
:103A600001F0D6FB5C214DF2091001F0D1FB0021E1
:103A70004DF20A1001F0CCFB81214DF20B1001F048
:103A8000C7FB00214DF20C1001F0C2FBA6214DF244
:103A90000D1001F0BDFB00214DF20E1001F0B8FB3E
:103AA000E5214DF20F1001F0B3FB01214DF2101092
:103AB00001F0AEFB13214DF2111001F0A9FB012121
:103AC0004DF2121001F0A4FB54214DF2131001F03D
:103AD0009FFB01214DF2141001F09AFB82214DF25F
:103AE000151001F095FB01214DF2161001F090FB2D
:103AF000CA214DF2171001F08BFB02214DF2181074
:103B000001F086FB00214DF2191001F081FB02212A
:103B10004DF21A1001F07CFB01214DF21B1001F057
:103B200077FB02214DF21C1001F072FB34214DF2A3
:103B30001D1001F06DFB02214DF21E1001F068FB1B
:103B400067214DF21F1001F063FB02214DF220109E
:103B500001F05EFB84214DF2211001F059FB02219E
:103B60004DF2221001F054FBA4214DF2231001F07C
:103B70004FFB02214DF2241001F04AFBB7214DF218
:103B8000251001F045FB02214DF2261001F040FB0B
:103B9000CF214DF2271001F03BFB02214DF22810FE
:103BA00001F036FBDE214DF2291001F031FB02213C
:103BB0004DF22A1001F02CFBF2214DF22B1001F0F6
:103BC00027FB02214DF22C1001F022FBFE214DF2C9
:103BD0002D1001F01DFB03214DF22E1001F018FBFA
:103BE00010214DF22F1001F013FB03214DF2301084
:103BF00001F00EFB33214DF2311001F009FB0321DE
:103C00004DF2321001F004FB6D214DF2331001F042
:103C1000FFFA00214FF4524001F0FAFA33214DF23D
:103C2000012001F0F5FA00214DF2022001F0F0FA36
:103C300034214DF2032001F0EBFA00214DF2042073
:103C400001F0E6FA3A214DF2052001F0E1FA0021F7
:103C50004DF2062001F0DCFA4A214DF2072001F076
:103C6000D7FA00214DF2082001F0D2FA5C214DF282
:103C7000092001F0CDFA00214DF20A2001F0C8FA26
:103C800081214DF20B2001F0C3FA00214DF20C20EE
:103C900001F0BEFAA6214DF20D2001F0B9FA002183
:103CA0004DF20E2001F0B4FAE5214DF20F2001F0A3
:103CB000AFFA01214DF2102001F0AAFA13214DF2C2
:103CC000112001F0A5FA01214DF2122001F0A0FA15
:103CD00054214DF2132001F09BFA01214DF21420E2
:103CE00001F096FA82214DF2152001F091FA01219E
:103CF0004DF2162001F08CFACA214DF2172001F086
:103D000087FA02214DF2182001F082FA00214DF2CB
:103D1000192001F07DFA02214DF21A2001F078FA03
:103D200001214DF21B2001F073FA02214DF21C20FB
:103D300001F06EFA34214DF21D2001F069FA0221E2
:103D40004DF21E2001F064FA67214DF21F2001F0B0
:103D50005FFA02214DF2202001F05AFA84214DF23F
:103D6000212001F055FA02214DF2222001F050FAF3
:103D7000A4214DF2232001F04BFA02214DF2242020
:103D800001F046FAB7214DF2252001F041FA022157
:103D90004DF2262001F03CFACF214DF2272001F010
:103DA00037FA02214DF2282001F032FADE214DF2DD
:103DB000292001F02DFA02214DF22A2001F028FAE3
:103DC000F2214DF22B2001F023FA02214DF22C209A
:103DD00001F01EFAFE214DF22D2001F019FA032107
:103DE0004DF22E2001F014FA10214DF22F2001F097
:103DF0000FFA03214DF2302001F00AFA33214DF27F
:103E0000312001F005FA03214DF2322001F000FAD1
:103E10006D214DF2332001F0FBF900214FF45340A6
:103E200001F0F6F933214DF2013001F0F1F90021F2
:103E30004DF2023001F0ECF934214DF2033001F083
:103E4000E7F900214DF2043001F0E2F93A214DF298
:103E5000053001F0DDF900214DF2063001F0D8F90E
:103E60004A214DF2073001F0D3F900214DF208301C
:103E700001F0CEF95C214DF2093001F0C9F90021C1
:103E80004DF20A3001F0C4F981214DF20B3001F0FE
:103E9000BFF900214DF20C3001F0BAF9A6214DF224
:103EA0000D3001F0B5F900214DF20E3001F0B0F9FE
:103EB000E5214DF20F3001F0ABF901214DF2103048
:103EC00001F0A6F913214DF2113001F0A1F9012101
:103ED0004DF2123001F09CF954214DF2133001F0F3
:103EE00097F901214DF2143001F092F982214DF23F
:103EF000153001F08DF901214DF2163001F088F9ED
:103F0000CA214DF2173001F083F902214DF2183029
:103F100001F07EF900214DF2193001F079F902210A
:103F20004DF21A3001F074F901214DF21B3001F00D
:103F30006FF902214DF21C3001F06AF934214DF283
:103F40001D3001F065F902214DF21E3001F060F9DB
:103F500067214DF21F3001F05BF902214DF2203054
:103F600001F056F984214DF2213001F051F902217E
:103F70004DF2223001F04CF9A4214DF2233001F032
:103F800047F902214DF2243001F042F9B7214DF2F8
:103F9000253001F03DF902214DF2263001F038F9CB
:103FA000CF214DF2273001F033F902214DF22830B4
:103FB00001F02EF9DE214DF2293001F029F902211C
:103FC0004DF22A3001F024F9F2214DF22B3001F0AC
:103FD0001FF902214DF22C3001F01AF9FE214DF2A9
:103FE0002D3001F015F903214DF22E3001F010F9BA
:103FF00010214DF22F3001F00BF903214DF230303A
:1040000001F006F933214DF2313001F001F90321BD
:104010004DF2323001F0FCF86D214DF2333001F0F9
:10402000F7F800214FF4544001F0F2F833214DF23B
:10403000014001F0EDF800214DF2024001F0E8F8F6
:1040400034214DF2034001F0E3F800214DF2044029
:1040500001F0DEF83A214DF2054001F0D9F80021D7
:104060004DF2064001F0D4F84A214DF2074001F02C
:10407000CFF800214DF2084001F0CAF85C214DF262
:10408000094001F0C5F800214DF20A4001F0C0F8E6
:1040900081214DF20B4001F0BBF800214DF20C40A4
:1040A00001F0B6F8A6214DF20D4001F0B1F8002163
:1040B0004DF20E4001F0ACF8E5214DF20F4001F059
:1040C000A7F801214DF2104001F0A2F813214DF2A2
:1040D000114001F09DF801214DF2124001F098F8D5
:1040E00054214DF2134001F093F801214DF2144098
:1040F00001F08EF882214DF2154001F089F801217E
:104100004DF2164001F084F8CA214DF2174001F03B
:104110007FF802214DF2184001F07AF800214DF2AB
:10412000194001F075F802214DF21A4001F070F8C3
:1041300001214DF21B4001F06BF802214DF21C40B1
:1041400001F066F834214DF21D4001F061F80221C2
:104150004DF21E4001F05CF867214DF21F4001F066
:1041600057F802214DF2204001F052F884214DF21F
:10417000214001F04DF802214DF2224001F048F8B3
:10418000A4214DF2234001F043F802214DF22440D6
:1041900001F03EF8B7214DF2254001F039F8022137
:1041A0004DF2264001F034F8CF214DF2274001F0C6
:1041B0002FF802214DF2284001F02AF8DE214DF2BD
:1041C000294001F025F802214DF22A4001F020F8A3
:1041D000F2214DF22B4001F01BF802214DF22C4050
:1041E00001F016F8FE214DF22D4001F011F80321E7
:1041F0004DF22E4001F00CF810214DF22F4001F04D
:1042000007F803214DF2304001F002F833214DF25E
:10421000314000F0FDFF03214DF2324000F0F8FF85
:104220006D214DF2334000F0F3FF00214FF4554073
:1042300000F0EEFF33214DF2015000F0E9FF0021C4
:104240004DF2025000F0E4FF34214DF2035000F033
:10425000DFFF00214DF2045000F0DAFF3A214DF269
:10426000055000F0D5FF00214DF2065000F0D0FFC0
:104270004A214DF2075000F0CBFF00214DF20850CB
:1042800000F0C6FF5C214DF2095000F0C1FF002193
:104290004DF20A5000F0BCFF81214DF20B5000F0AE
:1042A000B7FF00214DF20C5000F0B2FFA6214DF2F5
:1042B0000D5000F0ADFF00214DF20E5000F0A8FFB0
:1042C000E5214DF20F5000F0A3FF01214DF21050F7
:1042D00000F09EFF13214DF2115000F099FF0121D3
:1042E0004DF2125000F094FF54214DF2135000F0A3
:1042F0008FFF01214DF2145000F08AFF82214DF210
:10430000155000F085FF01214DF2165000F080FF9E
:10431000CA214DF2175000F07BFF02214DF21850D8
:1043200000F076FF00214DF2195000F071FF0221DC
:104330004DF21A5000F06CFF01214DF21B5000F0BD
:1043400067FF02214DF21C5000F062FF34214DF254
:104350001D5000F05DFF02214DF21E5000F058FF8D
:1043600067214DF21F5000F053FF02214DF2205003
:1043700000F04EFF84214DF2215000F049FF022150
:104380004DF2225000F044FFA4214DF2235000F0E2
:104390003FFF02214DF2245000F03AFFB7214DF2C9
:1043A000255000F035FF02214DF2265000F030FF7D
:1043B000CF214DF2275000F02BFF02214DF2285063
:1043C00000F026FFDE214DF2295000F021FF0221EE
:1043D0004DF22A5000F01CFFF2214DF22B5000F05C
:1043E00017FF02214DF22C5000F012FFFE214DF27A
:1043F0002D5000F00DFF03214DF22E5000F008FF6C
:1044000010214DF22F5000F003FF03214DF23050E8
:1044100000F0FEFE33214DF2315000F0F9FE032191
:104420004DF2325000F0F4FE6D214DF2335000F0A9
:10443000EFFE00214FF4564000F0EAFE33214DF22A
:10444000016000F0E5FE00214DF2026000F0E0FEA8
:1044500034214DF2036000F0DBFE00214DF20460D8
:1044600000F0D6FE3A214DF2056000F0D1FE0021A9
:104470004DF2066000F0CCFE4A214DF2076000F0DC
:10448000C7FE00214DF2086000F0C2FE5C214DF233
:10449000096000F0BDFE00214DF20A6000F0B8FE98
:1044A00081214DF20B6000F0B3FE00214DF20C6053
:1044B00000F0AEFEA6214DF20D6000F0A9FE002135
:1044C0004DF20E6000F0A4FEE5214DF20F6000F009
:1044D0009FFE01214DF2106000F09AFE13214DF273
:1044E000116000F095FE01214DF2126000F090FE87
:1044F00054214DF2136000F08BFE01214DF2146047
:1045000000F086FE82214DF2156000F081FE01214F
:104510004DF2166000F07CFECA214DF2176000F0EB
:1045200077FE02214DF2186000F072FE00214DF27C
:10453000196000F06DFE02214DF21A6000F068FE75
:1045400001214DF21B6000F063FE02214DF21C6060
:1045500000F05EFE34214DF21D6000F059FE022194
:104560004DF21E6000F054FE67214DF21F6000F016
:104570004FFE02214DF2206000F04AFE84214DF2F0
:10458000216000F045FE02214DF2226000F040FE65
:10459000A4214DF2236000F03BFE02214DF2246085
:1045A00000F036FEB7214DF2256000F031FE022109
:1045B0004DF2266000F02CFECF214DF2276000F076
:1045C00027FE02214DF2286000F022FEDE214DF28E
:1045D000296000F01DFE02214DF22A6000F018FE55
:1045E000F2214DF22B6000F013FE02214DF22C60FF
:1045F00000F00EFEFE214DF22D6000F009FE0321B9
:104600004DF22E6000F004FE10214DF22F6000F0FC
:10461000FFFD03214DF2306000F0FAFD33214DF231
:10462000316000F0F5FD03214DF2326000F0F0FD45
:104630006D214DF2336000F0EBFD55214FF47040D9
:1046400000F0E6FDAA214FF2010000F0E1FD522149
:104650004FF2020000F0DCFD08214FF2030000F0F1
:10466000D7FD00214FF2040000F0D2FDCC214FF421
:10467000314000F0CDFD00214BF2011000F0C8FDEB
:1046800005214FF4364000F0C3FD70214FF4374050
:1046900000F0BEFD70214BF2017000F0B9FD012168
:1046A0004FF4384000F0B4FD03214BF6010000F058
:1046B000AFFD03214BF6020000F0AAFD03214BF6EB
:1046C000030000F0A5FD02214FF43C4000F0A0FDE6
:1046D00000214BF6014000F09BFD00214BF602400B
:1046E00000F096FDD0214FF4494000F091FD0221E9
:1046F0004CF6011000F08CFD50214CF6021000F039
:1047000087FD50214CF6031000F082FD50214CF63D
:10471000041000F07DFD00214FF4545000F078FDAE
:1047200055214FF4685000F073FD4FF4885000F0AD
:1047300059FD7820FDF750FE4FF4245000F052FD53
:1047400010BD10B5E22000F04DFD1D2000F03EFD33
:10475000022000F03BFD042000F038FD6420FDF74E
:104760003BFEE02000F03EFD012000F02FFD0A207E
:10477000FDF726FEE02000F035FD032000F026FDC9
:104780000C20FDF71DFE012000F02CFD0A20FDF796
:1047900017FEE62000F026FD2F2000F017FDFF2079
:1047A00000F014FDFF2000F011FDB02000F01AFD14
:1047B000202000F00BFD002000F008FD032000F099
:1047C00005FD40F21F3000F001FD012000F0FEFC6D
:1047D00040F2DF1000F0FAFC002000F0F7FCB420FB
:1047E00000F000FD042000F0F1FC40F21F4000F05A
:1047F000EDFC002000F0EAFC2E2000F0E7FC002099
:1048000000F0E4FC002000F0E1FC002000F0DEFC01
:10481000002000F0DBFCB62000F0E4FC022000F0F9
:10482000D5FC4FF4037000F0D1FC002000F0CEFC6A
:10483000172000F0CBFC152000F0C8FC002000F091
:10484000C5FC002000F0C2FCF02000F0CBFC0320EF
:1048500000F0BCFC292000F0C5FCD02000F0C2FC18
:10486000002000F0B3FCBE2000F0BCFC052000F0EE
:10487000ADFCFE2000F0AAFC012000F0A7FC002007
:1048800000F0A4FC002000F0A1FC002000F09EFC41
:10489000B82000F0A7FC032000F098FC012000F0F5
:1048A00095FCBA2000F09EFC012000F08FFC10BDAA
:1048B00010B5112000F096FC7820FDF781FD362020
:1048C00000F090FC002000F081FC3A2000F08AFC0F
:1048D000052000F07BFCB22000F084FC0C2000F0EE
:1048E00075FC0C2000F072FC002000F06FFC3320FF
:1048F00000F06CFC332000F069FCB72000F072FC83
:10490000352000F063FCBB2000F06CFC322000F08E
:104910005DFCC02000F066FC0C2000F057FCC220BB
:1049200000F060FC012000F051FCC32000F05AFCB4
:10493000102000F04BFCC42000F054FC202000F0BC
:1049400045FCC62000F04EFC0F2000F03FFCD020BC
:1049500000F048FCA42000F039FCA12000F036FC57
:10496000E02000F03FFCD02000F030FC002000F000
:104970002DFC022000F02AFC072000F027FC0A2072
:1049800000F024FC282000F021FC322000F01EFC66
:10499000442000F01BFC422000F018FC062000F030
:1049A00015FC0E2000F012FC122000F00FFC142069
:1049B00000F00CFC172000F009FCE12000F012FCD4
:1049C000D02000F003FC002000F000FC022000F0EA
:1049D000FDFB072000F0FAFB0A2000F0F7FB28207F
:1049E00000F0F4FB312000F0F1FB542000F0EEFB6E
:1049F000472000F0EBFB0E2000F0E8FB1C2000F04D
:104A0000E5FB172000F0E2FB1B2000F0DFFB1E207F
:104A100000F0DCFB2A2000F0E5FB002000F0D6FBD4
:104A2000002000F0D3FB002000F0D0FBEF2000F0CE
:104A3000CDFB2B2000F0D6FB002000F0C7FB0020B0
:104A400000F0C4FB012000F0C1FB3F2000F0BEFBE2
:104A5000292000F0C7FB10BD00B593B000BF00BF18
:104A6000DE48806940F48070DC49886108468069CE
:104A700000F48070009000BF00BF00BF00BF00BF07
:104A80000846806940F0200088610846806900F08F
:104A90002000009000BF00BF00BF00BF00BF08465D
:104AA000806940F0200088610846806900F020009D
:104AB000009000BF00BF00BF00BF00BF0846806974
:104AC00040F4807088610846806900F4807000902E
:104AD00000BF00BF00BF00BF00BF0846806940F0B4
:104AE000080088610846806900F00800009000BF57
:104AF00000BF00BF88140F90022010900120119079
:104B0000032012900FA9B648FCF77AF820200F90E6
:104B10000FA9B448FCF774F810200F900FA9B14802
:104B2000FCF76EF801200F900FA9AD48FCF768F86C
:104B300001200F9010900FA9AB48FCF761F84FF0DF
:104B40002040AA490860AA484860062088600021E1
:104B5000A648C1601021416100218161C1614162AB
:104B60004FF4805181620021C1624FF480410163A2
:104B70000021416381630020089009900F200A9072
:104B800000200E90019002900120039000200790D9
:104B900001AA08A99548FCF703FE3220FDF710FC96
:104BA000D32000F01FFB00F033F99249888000F019
:104BB0002FF99049888000F02BF98E4988800846AB
:104BC00080884FF6FF7101EA00208A49888000F052
:104BD0001FF9884989880843864988800846808863
:104BE00049F2413188427DD0042000F0FBFA00F008
:104BF0000FF98049888000F00BF97E49888000F029
:104C000007F97C498880084680884FF6FF7101EAE1
:104C100000207849888000F0FBF8764989880843AD
:104C2000744988800846808848F25251884203D1EE
:104C300047F289706F4988806E48808847F2897191
:104C40008842D0D0D42000F0CDFA00F0E1F86949D4
:104C5000888000F0DDF86749888000F0D9F8654960
:104C60008880084680884FF6FF7101EA002061497C
:104C7000888000F0CDF85F49898808435D498880C5
:104C80000846808845F21031884262D055214FF4A1
:104C9000704000F0BDFAAA214FF2010000F0B8FA0E
:104CA00052214FF2020000F0B3FA08214FF2030044
:104CB00000F0AEFA01214FF2040000F0A9FA4FF41F
:104CC000454000F08FFA00F0A3F84A498880084672
:104CD00080884FF6FF7101EA0020464988804CF237
:104CE000015000E035E000F07DFA00F091F8414914
:104CF000898808433F4988800520FDF761FB3D48CE
:104D0000808845F21051884223D0A12000F06AFA31
:104D100000F07EF83749888000F07AF835498880BD
:104D2000084680884FF6FF7101EA002031498880EB
:104D300000F06EF82F49898808432E49888008467C
:104D4000808845F26171884203D141F66310294998
:104D500088802848818828A0FBF7D6FA25488088D3
:104D600047F28971884202D1FFF7A2FD25E0214870
:104D7000808849F24131884202D1FDF7D5FC1CE020
:104D80001C48808845F21031884202D1FDF7E2FDCF
:104D900013E01848808845F21051884202D1FEF78E
:104DA00052FD0AE01348808841F66311884204D11D
:104DB000FFF7C7FC642000F0DFF90020FDF71CFCC2
:104DC00000BF012211460848FCF7CCF800BF4FF69F
:104DD000FF70FDF7F7FB13B000BD000000100240AC
:104DE0000020014000140140000C0140100300208D
:104DF000040100A0580300204C43442049443A25B4
:104E0000780D0A0000BF011EA0F10100FBD1704720
:104E100008B50220FFF7F6FF024800880090BDF8B1
:104E2000000008BD0008006CF0B50546002400270E
:104E300088488079012805D18648808841F6631129
:104E4000884208D183488079F0B98248808841F649
:104E50006311884218D1082D15D2DFE805F0040649
:104E6000080A0C0E101206250DE007250BE004259C
:104E700009E0052507E0012505E0002503E00325FD
:104E800001E0022500BF00BF082D1CD2DFE805F0BD
:104E90000406090C0F12151800BF14E044F080043A
:104EA00011E044F040040EE044F0C0040BE044F094
:104EB000200408E044F0600405E044F0A00402E0AF
:104EC00044F0E00400BF00BF36276248808845F206
:104ED0001051884200D13F025E48808849F241313A
:104EE000884205D05B48808847F28971884201D1A9
:104EF00044F008042146384600F08AF95548808875
:104F000041F6631188421DD004F0200068B1514879
:104F1000008850494988884214DA4E4806884088FB
:104F20004C490880084646800CE04A4800884949B8
:104F30004988884206DD47480688408845490880F8
:104F4000084646804348808845F21051884252D135
:104F50004049488900F046F9002000F037F93D4902
:104F60004989491C88B200F03DF9002000F02EF973
:104F700038494989891C88B200F034F935490988D3
:104F8000491EC1F30F2000F021F932494989C91C9B
:104F900088B200F027F92F490978491EC8B200F0FD
:104FA00015F92C49888900F01DF9002000F00EF950
:104FB00028498989491C88B200F014F9002000F0C2
:104FC00005F924498989891C88B200F00BF9214927
:104FD0004988491EC1F30F2000F0F8F81D4989895E
:104FE000C91C88B200F0FEF81A498978491EC8B277
:104FF00000F0ECF82DE01749488900F0F3F80020A4
:1050000000F0E4F8002000F0E1F812490988491E98
:10501000C1F30F2000F0DAF80E490978491EC8B232
:1050200000F0D4F80B49888900F0DCF8002000F08B
:10503000CDF8002000F0CAF806494988491EC1F39E
:105040000F2000F0C3F803498978491EC8B200F068
:10505000BDF8F0BD5803002010B502460C46454887
:10506000808841F66311884247D142488079A8B9C7
:1050700040480088401E801A82B23E49488900F0AC
:10508000B1F8002000F0A2F8002000F09FF8101204
:1050900000F09CF8D0B200F099F816E03549488944
:1050A00000F0A0F8101200F091F8D0B200F08EF8E5
:1050B00030490988491EC1F30F2000F087F82D49B7
:1050C0000978491EC8B200F081F82A49888900F0A1
:1050D00089F8201200F07AF8E0B200F077F825495C
:1050E0004988491EC1F30F2000F070F821498978E2
:1050F000491EC8B200F06AF83AE01E48808845F2BE
:105100001051884220D11B49488900F06BF81012D9
:1051100000F05CF817494989491C88B200F062F830
:10512000D0B200F053F81349888900F05BF82012E0
:1051300000F04CF80F498989491C88B200F052F8F8
:10514000E0B200F043F813E00A49488900F04AF859
:10515000101200F03BF8D0B200F038F80549888909
:1051600000F040F8201200F031F8E0B200F02EF824
:1051700010BD0000580300202DE9F0470446BE2072
:1051800000F030F8052000F021F8204603F021FC63
:1051900007464FF066320C4B03F02EFC054603F039
:1051A000EBFB1FFA80F9484600F010F8012000F0F0
:1051B0000DF8FF2000F00AF8002000F007F80020AA
:1051C00000F004F8BDE8F0876666044001B5BDF85C
:1051D00000000090BDF800000149088008BD0000F3
:1051E0000008006C01B5BDF800000090BDF800009B
:1051F0000149088008BD0000FE07006C02480089D4
:10520000024908807047000058030020FE07006C28
:10521000024A1080921C118070470000FE07006C4B
:1052200000B585B000BF00BF1E48806940F008008F
:105230001C4988610846806900F00800009000BFA2
:1052400000BF00BF00BF00BF0846806940F04000BB
:1052500088610846806900F04000009000BF00BFF0
:1052600000BF2020019001200290039003200490B1
:1052700001A90D48FBF7C4FC2020019001A90B48AF
:10528000FBF7BEFC00BF012220210748FBF76AFEA6
:1052900000BF00BF012220210448FBF763FE00BFCE
:1052A00005B000BD00100240000C01400018014094
:1052B00010B5FBF76FFE4FF4E01000F0CBFF482075
:1052C000FDF756F84FF4E13001F050F80848416816
:1052D00048208847FFF7A4FFFFF7BEFBFDF7C6F89D
:1052E000002000F03DF8FDF7A9F8002010BD0000F7
:1052F000940000202DE9F04104460E461548005D5B
:1053000038B9144818380168204688470120BDE89C
:10531000F081114850F82400B04219D90F4850F8D4
:105320002400B6FBF0F10B48083850F8240030F8A0
:105330001120002508E000230648083850F8240012
:105340004F1920F817306D1C9542F4DB0020DEE782
:105350000220DCE7440000201C8C0008148C0008AC
:1053600030B504460225084951F8241001FB05F226
:10537000064951F82400002100F07EF8012103487D
:105380000830015530BD00000C8C00083C000020A6
:105390002DE9F04704460F460025A9462348005D45
:1053A00020B9224818380168204688471FB94FF0B5
:1053B000FF30BDE8F0871E4850F82400B7FBF0F638
:1053C0001B4850F82400B7FBF0F100FB117000B14E
:1053D000761C184850F82400451E22E0134808386F
:1053E00050F8240030F8150010B909F1010901E066
:1053F0004FF00009B14513D14FF0000809E00B4808
:10540000083850F8240005EB080220F8126008F173
:105410000108B045F3D3064850F824006843C8E7B4
:105420006D1E002DDADA4FF0FF30C2E74400002095
:10543000148C00080C8C000810B5014600230022D3
:1054400007E00B4850F8210030F8120000B15B1C57
:10545000521C084850F821009042F2D84FF47A705C
:105460005843044C54F82140B0FBF4F080B210BD16
:105470003C0000200C8C000830B5034601E003F826
:10548000011B141EA2F10102F9D130BD70B5054611
:105490000C4604B970BD054850F82500261A31465F
:1054A0002846FFF727FF00BFF4E700003400002084
:1054B00070B504460E4631462046FFF769FF0546A3
:1054C000681C08B9002070BD024850F82400284428
:1054D000F9E70000340000202DE9F04105460E46B2
:1054E0002948076800202949096881F85900274898
:1054F0000068001D02F038F850B92448006890F8A0
:105500002C1001208840224909688143204801600D
:10551000681CD8B9D6B11F4948681C490968886019
:105520001A4982680968CA6018490968091D8268B1
:10553000516016490968091D8160164A13490968B6
:105540004A6111460968491C11601AE07C190F482C
:1055500000684460BC4207D20C480168091D0E482F
:10556000006802F025F80CE008480168091D0B48A6
:10557000006802F01DF80A480068844201D2084819
:105580000460BDE8F08100009C010020880100203B
:10559000A001002018B10020900100208C01002003
:1055A000B801002010B5044602F028F83148006820
:1055B000401C304908603048006840B92E480460FB
:1055C0000846006801280DD100F016FA0AE02B48C1
:1055D000006838B928480068C06AE16A884201D882
:1055E0002548046026480068401C25490860084694
:1055F0000068606494F82C100120884021490968F3
:10560000084320490860E16A01EB81011E4A02EB70
:1056100081014868A0608268E260211D8268516053
:105620008160E16A01EB8101174A02EB810262614C
:10563000E16A01EB8101144A52F82110491CE26A27
:1056400002EB8202104B43F8221002F021F80B48C3
:10565000006868B108480068C06AE16A884207D2F9
:105660004FF0805009490860BFF34F8FBFF36F8F31
:1056700010BD00009801002088010020A401002036
:10568000B4010020A001002048AE002004ED00E09D
:1056900010B501F0B3FF10480068D0B90F4801F011
:1056A00077FF0F4801F074FF0C480E4908600C4862
:1056B0000D49086000221021052002F0F9FB06497F
:1056C00008600846006820B108A10348006802F09D
:1056D0009DF801F0DDFF10BDD00100202CB10020AD
:1056E00040B10020C8010020CC010020546D72514F
:1056F0000000000010B516E001F080FF0C48C06803
:10570000C468201D01F030FF0A480068401E0949A6
:10571000086009480068401E0749086001F0B8FFAA
:10572000204600F05FF8044800680028E4D110BD6E
:1057300004B10020980100209401002070B50446B7
:105740000D46206C70B1216CE0680144E160D4E941
:105750000210884201D32168E1602846226CE1688A
:10576000FAF75AFF70BD2DE9F04104460F46154681
:105770004FF00008A66B206C48B9206800282CD197
:10578000A06802F0BBFE80460020A06025E07DB945
:105790003946226C6068FAF73FFF216C6068084464
:1057A0006060D4E90101884217D32068606014E08A
:1057B0003946226CE068FAF72FFF216CE068411A45
:1057C000E1602168E068884203D2216CA068411A38
:1057D000E160022D01D106B1761E701CA063404627
:1057E000BDE8F08110B50446206B01F08FFF204624
:1057F00001F08CFF10BD00000146084A12681268D3
:105800000AB9012200E000220A600A6822B9034AAC
:105810001268D268106800E000207047C8010020BC
:1058200030B54FF42053174800F007042CB1C01DC9
:1058300020F00700134C041B1B1B0246124C226075
:105840000024114D6C60D018083820F007000F4C70
:10585000206000240D4D2D686C600C4D2D682C606F
:105860001146441A4C60094C24680C60084D4C6881
:105870002C60084D4C682C604FF00044064D2C60A5
:1058800030BD000054B10020DC010020E401002004
:10589000EC010020E8010020F801002000BFFFF724
:1058A00029FF064800680128F9D94FF080500449C3
:1058B0000860BFF34F8FBFF36F8FF0E748AE002053
:1058C00004ED00E02DE9F04106460D4617469846E6
:1058D000069C0DB9246000E02760E6632564012181
:1058E000204602F02DFB84F850800020A064BDE823
:1058F000F08100002DE9F05F82460F4690469B46FE
:105900000A9E0C9C4FEA8801A522206BFAF7C9FE7B
:10591000A8F10100216B01EB800929F0070909F0CA
:10592000070008B9012000E0002028B94FF45872A0
:1059300024A12DA0FAF7E8FC87B1002507E0795DE6
:1059400004F134004155785D00B902E06D1C102D62
:10595000F5D300BF00214320015502E0002084F868
:105960003400202E01D2012000E0002028B940F2AE
:10597000973214A11CA0FAF7C7FC202E00D31F26D3
:10598000E662E66400202065201D01F00EFE04F1B1
:10599000180001F00AFE2461C6F12000A0616462D3
:1059A0000020606584F8580084F859005A46514632
:1059B000484600F0F9FB20600B9808B10B98046092
:1059C000BDE8F09F2E2E5C2E2E5C4D6964646C65E4
:1059D00077617265735C4672656552544F535C74AF
:1059E00061736B732E6300004572726F723A2025EB
:1059F000732C2025640D0A0010B5002407E004EB89
:105A000084010F4A02EB810001F0C2FD641C202CCE
:105A1000F5D30C4801F0BCFD0B4801F0B9FD0B4873
:105A200001F0B6FD0A4801F0B3FD0A4801F0B0FDEF
:105A300004480949086004480849086010BD00008E
:105A400048AE0020C8B00020DCB00020F0B000203C
:105A500004B1002018B100208C010020900100202A
:105A600010B50146164800E0006803688B42FBD37E
:105A70000246436813448B4204D143684C68234474
:105A8000436001460A464B6813440468A34211D19F
:105A90000C4C03682468A34208D04B68046864680F
:105AA00023444B6003681B680B6005E0054B1B68D3
:105AB0000B6001E003680B60884200D0016010BDFC
:105AC000DC010020E40100202DE9F04104460D46F0
:105AD00016461F464FF0000865602461B5420CD899
